{
    "abi": [
        {
            "type": "constructor",
            "inputs": [
                {
                    "name": "_mintingContract",
                    "type": "address",
                    "internalType": "address"
                }
            ],
            "stateMutability": "nonpayable"
        },
        {
            "type": "function",
            "name": "mintingContract",
            "inputs": [],
            "outputs": [
                {
                    "name": "",
                    "type": "address",
                    "internalType": "address"
                }
            ],
            "stateMutability": "view"
        },
        {
            "type": "function",
            "name": "multiMintTwo",
            "inputs": [
                {
                    "name": "destination1",
                    "type": "address",
                    "internalType": "address"
                },
                {
                    "name": "amount1",
                    "type": "uint256",
                    "internalType": "uint256"
                },
                {
                    "name": "bitcoinBlockHeight1",
                    "type": "uint32",
                    "internalType": "uint32"
                },
                {
                    "name": "metadata1",
                    "type": "bytes",
                    "internalType": "bytes"
                },
                {
                    "name": "refundAddress1",
                    "type": "address",
                    "internalType": "address"
                },
                {
                    "name": "destination2",
                    "type": "address",
                    "internalType": "address"
                },
                {
                    "name": "amount2",
                    "type": "uint256",
                    "internalType": "uint256"
                },
                {
                    "name": "bitcoinBlockHeight2",
                    "type": "uint32",
                    "internalType": "uint32"
                },
                {
                    "name": "metadata2",
                    "type": "bytes",
                    "internalType": "bytes"
                },
                {
                    "name": "refundAddress2",
                    "type": "address",
                    "internalType": "address"
                }
            ],
            "outputs": [],
            "stateMutability": "nonpayable"
        }
    ],
    "bytecode": {
        "object": "0x60a060405234801561001057600080fd5b50604051610a7a380380610a7a833981810160405281019061003291906100cf565b8073ffffffffffffffffffffffffffffffffffffffff1660808173ffffffffffffffffffffffffffffffffffffffff1681525050506100fc565b600080fd5b600073ffffffffffffffffffffffffffffffffffffffff82169050919050565b600061009c82610071565b9050919050565b6100ac81610091565b81146100b757600080fd5b50565b6000815190506100c9816100a3565b92915050565b6000602082840312156100e5576100e461006c565b5b60006100f3848285016100ba565b91505092915050565b6080516109566101246000396000818160770152818161013801526102a001526109566000f3fe608060405234801561001057600080fd5b50600436106100365760003560e01c8063d2f6f67d1461003b578063e39bfe4614610059575b600080fd5b610043610075565b60405161005091906103ba565b60405180910390f35b610073600480360381019061006e91906105cd565b610099565b005b7f000000000000000000000000000000000000000000000000000000000000000081565b60007f5fe03f45c42a837c0bed5f297fb78879cb153e069c399b77bfcc74c1ddb1d05e8b8b8b8b8b6040516024016100d595949392919061078a565b604051602081830303815290604052907bffffffffffffffffffffffffffffffffffffffffffffffffffffffff19166020820180517bffffffffffffffffffffffffffffffffffffffffffffffffffffffff8381831617835250505050905060007f000000000000000000000000000000000000000000000000000000000000000073ffffffffffffffffffffffffffffffffffffffff168260405161017b9190610820565b6000604051808303816000865af19150503d80600081146101b8576040519150601f19603f3d011682016040523d82523d6000602084013e6101bd565b606091505b5050905080610201576040517f08c379a00000000000000000000000000000000000000000000000000000000081526004016101f890610894565b60405180910390fd5b60007f5fe03f45c42a837c0bed5f297fb78879cb153e069c399b77bfcc74c1ddb1d05e888888888860405160240161023d95949392919061078a565b604051602081830303815290604052907bffffffffffffffffffffffffffffffffffffffffffffffffffffffff19166020820180517bffffffffffffffffffffffffffffffffffffffffffffffffffffffff8381831617835250505050905060007f000000000000000000000000000000000000000000000000000000000000000073ffffffffffffffffffffffffffffffffffffffff16826040516102e39190610820565b6000604051808303816000865af19150503d8060008114610320576040519150601f19603f3d011682016040523d82523d6000602084013e610325565b606091505b5050905080610369576040517f08c379a000000000000000000000000000000000000000000000000000000000815260040161036090610900565b60405180910390fd5b5050505050505050505050505050565b600073ffffffffffffffffffffffffffffffffffffffff82169050919050565b60006103a482610379565b9050919050565b6103b481610399565b82525050565b60006020820190506103cf60008301846103ab565b92915050565b6000604051905090565b600080fd5b600080fd5b6103f281610399565b81146103fd57600080fd5b50565b60008135905061040f816103e9565b92915050565b6000819050919050565b61042881610415565b811461043357600080fd5b50565b6000813590506104458161041f565b92915050565b600063ffffffff82169050919050565b6104648161044b565b811461046f57600080fd5b50565b6000813590506104818161045b565b92915050565b600080fd5b600080fd5b6000601f19601f8301169050919050565b7f4e487b7100000000000000000000000000000000000000000000000000000000600052604160045260246000fd5b6104da82610491565b810181811067ffffffffffffffff821117156104f9576104f86104a2565b5b80604052505050565b600061050c6103d5565b905061051882826104d1565b919050565b600067ffffffffffffffff821115610538576105376104a2565b5b61054182610491565b9050602081019050919050565b82818337600083830152505050565b600061057061056b8461051d565b610502565b90508281526020810184848401111561058c5761058b61048c565b5b61059784828561054e565b509392505050565b600082601f8301126105b4576105b3610487565b5b81356105c484826020860161055d565b91505092915050565b6000806000806000806000806000806101408b8d0312156105f1576105f06103df565b5b60006105ff8d828e01610400565b9a505060206106108d828e01610436565b99505060406106218d828e01610472565b98505060608b013567ffffffffffffffff811115610642576106416103e4565b5b61064e8d828e0161059f565b975050608061065f8d828e01610400565b96505060a06106708d828e01610400565b95505060c06106818d828e01610436565b94505060e06106928d828e01610472565b9350506101008b013567ffffffffffffffff8111156106b4576106b36103e4565b5b6106c08d828e0161059f565b9250506101206106d28d828e01610400565b9150509295989b9194979a5092959850565b6106ed81610415565b82525050565b6106fc8161044b565b82525050565b600081519050919050565b600082825260208201905092915050565b60005b8381101561073c578082015181840152602081019050610721565b8381111561074b576000848401525b50505050565b600061075c82610702565b610766818561070d565b935061077681856020860161071e565b61077f81610491565b840191505092915050565b600060a08201905061079f60008301886103ab565b6107ac60208301876106e4565b6107b960408301866106f3565b81810360608301526107cb8185610751565b90506107da60808301846103ab565b9695505050505050565b600081905092915050565b60006107fa82610702565b61080481856107e4565b935061081481856020860161071e565b80840191505092915050565b600061082c82846107ef565b915081905092915050565b600082825260208201905092915050565b7f4669727374206d696e742063616c6c206661696c656400000000000000000000600082015250565b600061087e601683610837565b915061088982610848565b602082019050919050565b600060208201905081810360008301526108ad81610871565b9050919050565b7f5365636f6e64206d696e742063616c6c206661696c6564000000000000000000600082015250565b60006108ea601783610837565b91506108f5826108b4565b602082019050919050565b60006020820190508181036000830152610919816108dd565b905091905056fea264697066735822122001ac3a8f62e1fe111a942ede983c3886f46a872e3a65a96f3a0b400a577a978f64736f6c634300080d0033",
        "linkReferences": {}
    },
    "methodIdentifiers": {
        "mintingContract()": "d2f6f67d",
        "multiMintTwo(address,uint256,uint32,bytes,address,address,uint256,uint32,bytes,address)": "e39bfe46"
    },
    "id": 21
}